:020000040800F2
:10000000C8120020B90A0008250B0008250B0008BB
:10001000250B0008250B0008250B00080000000038
:10002000000000000000000000000000250B000898
:10003000250B000800000000151300083516000805
:10004000250B0008250B0008250B0008250B0008D0
:10005000250B0008250B0008250B0008250B0008C0
:10006000250B0008250B0008250B0008250B0008B0
:10007000250B0008250B0008250B0008250B0008A0
:10008000250B0008250B0008250B0008250B000890
:10009000250B0008250B0008250B0008250B000880
:1000A000250B0008250B0008250B0008250B000870
:1000B000250B0008250B0008250B0008250B000860
:1000C000250B0008250B0008250B0008250B000850
:1000D000250B0008250B0008250B0008250B000840
:1000E000250B0008250B0008250B0008250B000830
:1000F000250B0008250B0008250B0008250B000820
:10010000250B0008250B0008250B0008250B00080F
:10011000250B0008250B0008250B0008250B0008FF
:10012000250B0008250B0008250B0008250B0008EF
:10013000250B0008250B0008250B0008250B0008DF
:10014000250B0008250B0008250B0008250B0008CF
:10015000250B0008250B0008250B0008250B0008BF
:10016000250B0008250B0008250B0008250B0008AF
:10017000250B0008250B0008250B0008250B00089F
:10018000250B0008250B000880B400AF0D4A0E4B6C
:100190001A600C4B03F1C8020B4B5A600B4B094A17
:1001A0001A600A4B1B6800221A60084B1B68002269
:1001B0005A60064B1B6800229A60BD465DF8047BBE
:1001C000704700BF10000020DC000020D800002095
:1001D00080B500AF0E4B1B78DBB2012B10D10D4B5D
:1001E0001B78012B01D100F0A1FC0B4B1B78DBB27B
:1001F000012B01D100F00AFB054B00221A7006E02A
:10020000034B1B78DBB2013BDAB2014B1A7080BDA5
:10021000E500002054030020E600002080B500AF78
:10022000154B164A1A60164B07221A60154B154AD1
:10023000126842F07F421A60134A134B1B686FEA40
:1002400003436FEA1343136000F0E8F900F0ACFEDB
:10025000FFF79AFF0D4B1B78DBB20133DAB20B4B81
:100260001A700B4800214FF469520A4B00F094FBBE
:10027000084801F03FF880BD14E000E07FFC0A0070
:1002800010E000E01CED00E020ED00E0E5000020C3
:10029000451700080C03002080B500AF094B0A4A3F
:1002A0001A60084B1A68094B1A60064B1B6801223A
:1002B0005A71044B1B68184600F064FAFFF788FF78
:1002C00080BD00BF1C030020200100201803002077
:1002D00090B587B000AF0346FB71FA796D491346BC
:1002E0005B001344DB000B445B68FB60FB68002B86
:1002F00000D1CCE0684B1B78DBB20133DAB2664B3D
:100300001A70664B1B68002B09D1FA7913465B0003
:100310001344DB005F4A1A44604B1A60B5E05F4B40
:100320001B687B61FB683B61ABE03A697B695B689A
:10033000D31A3B613B69002B7CDA7B695B69002B3C
:1003400028D07B695969FA7913465B001344DB00B6
:10035000504A13440B61FA797B6959694D48134639
:100360005B001344DB00034410335960FA794949B8
:1003700013465B001344DB000B4410337A691A60A8
:10038000FA7913465B001344DB00424A1A447B6946
:100390005A611DE0FA79414B19683E4813465B00EB
:1003A0001344DB000344103319603C4B1968FA799D
:1003B00013465B001344DB00364A13444B61FA7961
:1003C00013465B001344DB00324A1A44334B1A6075
:1003D000FA79F9792F480B465B000B44DB000344A4
:1003E00010331B6859683B6919442A4813465B005F
:1003F0001344DB0003445960FA79264913465B0035
:100400001344DB000B4410331968FA792148134672
:100410005B001344DB00034410331B685868FA790F
:100420001C4C13465B001344DB0023445B68C31A77
:100430004B602AE03B69002B20DB7B691B69002BAA
:100440001CD1FA79134913465B001344DB000B44BB
:1004500010337A695A60FA7913465B001344DB0063
:100460000C4A1A447B691A61FA79396909481346BA
:100470005B001344DB000344596006E07B691B69A1
:100480007B617B69002B7FF450AFFFF7A1FE1C3727
:10049000BD4690BDE8000020E500002018010020C6
:1004A00080B584B000AF0346FB71FA7913465B0058
:1004B0001344DB002C4A1344FB602C4B1B78DBB24B
:1004C0000133DAB2294B1A70FB685B69002B07D144
:1004D000FB681B69002B03D1254B00221A603DE00D
:1004E000FB685B69002B14D1FB681A69204B1A600A
:1004F0001F4B1B6800225A61FB681B69FA6812696E
:100500005168FA6852680A445A60FB6800221A610E
:1005100024E0FB681B69002B07D1FB685B690022A4
:100520001A61FB6800225A6118E0FB685B69FA688F
:1005300012691A61FB681B69FA6852695A61FB68A3
:100540001B69FA6812695168FA6852680A445A606D
:10055000FB6800221A61FB6800225A61FFF738FE2F
:100560001037BD4680BD00BFE8000020E500002038
:100570001801002080B582B000AF1B4B1B687B6068
:1005800027E07B685B78002B0BD17B681B781846D3
:10059000FFF786FF7B6801229A707B68DB689847CB
:1005A00014E07B685B78012B10D17B681B781846C0
:1005B000FFF776FF7B689A687B685A607B681B78D8
:1005C0001846FFF785FE7B68DB689847064B1B687B
:1005D0007B607B68002B03D07B685B68002BD0D0EE
:1005E0000837BD4680BD00BF1801002080B500AFB0
:1005F000074B1B78DBB2012B06D9064B01221A7080
:10060000054B01221A7001E0FFF7B4FF80BD00BF67
:10061000E5000020540300205603002080B485B07C
:1006200000AF154BBB60154B7B600023FB7311E0E3
:10063000BB68FA7B9A71BB6803225A71BB687A68FF
:100640005A62BB682C33BB607B682C337B60FB7BBE
:100650000133FB73FB7B042BEAD9BB68FA7B9A71ED
:10066000BB6800225A62064B034A1A601437BD4623
:100670005DF8047B704700BF200100204C01002082
:100680001003002080B487B000AF78607B681B79CE
:10069000FB737B6800225A71354B1B683B613B69D9
:1006A0001B79FA7B9A421ED13A697B689A421AD02A
:1006B0003B69002B17D02F4BD3E900012E4BD3E918
:1006C0000023994208BF90420DD23B695B8998B2E2
:1006D0004FF00001284BD3E90023121843EB01032C
:1006E0002449C1E90023254B1B683B613B69002B72
:1006F00006D1234B01221A70204B7A681A6032E02F
:100700003B691B79FA7B9A420CD21D4B01221A706D
:100710007B683A695A623B697A689A62174B7A68D1
:100720001A6020E03B695B6A7B610AE07B691B79A8
:10073000FA7B9A4200D207E07B693B617B695B6A86
:100740007B617B69002BF1D17B687A695A623B69D6
:100750007A685A627B683A699A627B69002B02D098
:100760007B697A689A621C37BD465DF8047B7047E6
:100770001C03002020030020B804002014030020E4
:10078000E600002080B483B000AF78607B685B6ACD
:10079000002B07D17B689B6A002B03D11A4B0022E8
:1007A0001A602BE07B689B6A002B0BD17B685A6A2E
:1007B000154B1A607B6800225A62134B1B6800229B
:1007C0009A621BE07B685B6A002B07D17B689B6A9F
:1007D00000225A627B6800229A620FE07B689B6A63
:1007E0007A68526A5A627B685B6A7A68926A9A622D
:1007F0007B6800225A627B6800229A620C37BD46F1
:100800005DF8047B704700BF1403002080B584B0FE
:1008100000AF454B1B68FB60444B1B68BB60BB686B
:10082000002B0ED0424B1B68FA689A4209D1414B0B
:100830001B78DBB2012B04D83F4B1B78DBB2002BBB
:1008400000D06DE03D4B00221A70FB681B79FB71F4
:10085000BB681B79BB71FB685B79012B09D0344BFA
:10086000BA681A60BB6801225A71B868FFF78AFF3C
:100870002CE0BA79FB799A420CD22D4BBA681A60F7
:10088000F868FFF7FFFEB868FFF77CFFBB6801223E
:100890005A711BE0FA79BB799A4216D1284BD3E9F9
:1008A0000001284BD3E90023994208BF90420CD1A4
:1008B0001F4BBA681A60F868FFF7E4FEB868FFF7E4
:1008C00061FFBB6801225A7100E029E0184B1B68E8
:1008D0001A79164B1B681B799A420ED1144B1B6870
:1008E0005B8998B24FF00001164BD3E90023121830
:1008F00043EB01031249C1E90023FB681A68FB6856
:10090000DB689A4205D3FB68DB681A680E4B9A4293
:1009100004D0FB689B79184600F01AFF00F0F0FC49
:100920001037BD4680BD00BF1C030020140300200B
:1009300018030020E5000020E4000020E60000206D
:1009400020030020B8040020A5A55A5A80B582B023
:1009500000AF0F4B1B78DBB20133DAB20C4B1A70CD
:100960000C4B1B68002B03D1FFF732FC00230AE07D
:10097000084B1B687B60074B1B685A6A054B1A6063
:10098000FFF726FC7B6818460837BD4680BD00BFD0
:10099000E50000201003002080B588B000AFF860AB
:1009A000B9607A603B607A683F4B13401B0ABB8397
:1009B0007B68FB76FB68002B01D1FF236FE03B686F
:1009C000002B01D1FF236AE0FB7E402B01D9FF23DE
:1009D00065E0BB8B132B01D8FF2360E0F868B96892
:1009E0003A6800F0F9FD7861FFF7B0FF38613B69C4
:1009F000002B01D1FF2352E03B697A691A603B6901
:100A0000FA7E1A71BA8B13469B079B1A9B0004331C
:100A10003A681A443B69DA603B69DB68234A1A602A
:100A20003B694FF0FF321A623B6900225A623B6910
:100A300000229A627A681E4B13401B0DFB83FB8BCE
:100A4000002B02D14FF6FF73FB833B69FA8B5A816F
:100A50003B690022DA613B69FF221A723B6900227E
:100A60001A613B6900225A613B6900229A613B6925
:100A7000FF22DA717B68002B0CDB0E4B1B78DBB29C
:100A80000133DAB20B4B1A703869FFF7FBFDFFF741
:100A90009FFB02E03B6902225A713B699B79184631
:100AA0002037BD4680BD00BF00FF0F00A5A55A5AE4
:100AB0000000FF7FE500002080B582B000AF134B3F
:100AC0007B60134B3B6007E03B681A1D3A607A6815
:100AD000111D796012681A603A680E4B9A42F3D37E
:100AE0000D480E494FF000028842B8BF40F8042B71
:100AF000FFF6FAAFDFF82800016841F470010160E9
:100B000000F024F90837BD4680BD00BF5C1700081F
:100B1000000000200C00002010000020C80A002067
:100B200088ED00E080B400AFFEE700BF80B582B082
:100B300000AF3A4B1B78012B04D100F0E3F9374B9F
:100B400000221A70364B1B78012B05D1FFF712FDDE
:100B5000334B00221A704EE04DE000F0C3FB314BE6
:100B60005B78304ADB0013443A46043393E80300D1
:100B700082E803002B4B5B78591C2B4B83FB012332
:100B80005A10CB17D21A13469B001344CA1AD2B27A
:100B9000244B5A70234B1B78013BDAB2214B1A705D
:100BA00000F098FB3B78013B032B23D801A252F8BD
:100BB00023F000BFC50B0008CF0B0008DD0B0008B9
:100BC000E70B00087B78184600F080FD13E07A7888
:100BD0007B681046194600F001F90CE07B78184656
:100BE00000F014FC07E07A787B681046194600F0A4
:100BF000B7FB00E000BF0B4B1B78002BADD100F022
:100C000071FB084B1B78002B02D1084B00221A7095
:100C100000F060FB0837BD4680BD00BF55030020D3
:100C200056030020280300206766666654030020F0
:100C300080B582B000AF786005484FF4805100F075
:100C40002DFB03484FF4C04100F036FBF4E700BF32
:100C5000000C024080B582B000AF786005484FF4C8
:100C6000005100F01BFB03484FF4A04100F024FBAF
:100C7000F4E700BF000C024080B582B000AF78609E
:100C800005484FF4804100F009FB03484FF4405100
:100C900000F012FBF4E700BF000C024080B483B008
:100CA00000AF786000BF7B685A1E7A60002BFAD1D3
:100CB0000C37BD465DF8047B704700BF80B500AFC0
:100CC0000820012100F06CF81C4B4FF470421A60B0
:100CD0001A4B01221A71194B02225A71174B00222A
:100CE0009A71164B0022DA711548144900F048FA3F
:100CF0000120012100F054F8104B01221A600F4B23
:100D000000221A710D4B02225A710C4B00229A716B
:100D10000A4B0222DA710B48084900F031FA084800
:100D20004FF4704100F0BAFA0748FFF7B7FF0448E4
:100D30004FF4704100F0C0FA80BD00BFC00A00202F
:100D4000000C024000000240FFFF0F0080B500AF22
:100D5000FFF7B4FFFFF762FA0B4800214FF400429F
:100D60000A4BFFF719FE0A48002148F20102094B1D
:100D7000FFF712FE0848002148F20202074BFFF776
:100D80000BFEFFF789FAFEE7310C0008BC080020D3
:100D9000550C0008BC0A0020790C0008BC06002095
:100DA00080B483B000AF78600B46FB70FB78002BFB
:100DB00006D0094B084A116B7A680A431A6306E0A9
:100DC000054B054A116B7A68D2430A401A630C3707
:100DD000BD465DF8047B70470038024080B584B0A2
:100DE00000AF03463960FB71FB79132B01D9012356
:100DF00026E0FB791A01144B1344FB60FB685B7916
:100E0000C3F30303DBB2022B01D0012318E0FB681C
:100E1000DB88002B13D10D4B1B78DBB20133DAB228
:100E20000A4B1A70FB683A681A60FB680122DA8084
:100E3000F86800F0F5F8FFF7CBF9002300E007238E
:100E400018461037BD4680BD5C030020E500002039
:100E500080B483B000AF78607B689B6A002B07D1B9
:100E60007B685B6A002B03D1254B00221A603DE0B2
:100E70007B689B6A002B14D17B685A6A204B1A60EE
:100E80007B685B6A7A68526A116A7A68126A0A44F5
:100E90001A627B685B6A00229A627B6800225A624F
:100EA00024E07B685B6A002B07D17B689B6A002289
:100EB0005A627B6800229A6218E07B689B6A7A68B3
:100EC000526A5A627B685B6A7A68926A9A627B6845
:100ED0005B6A7A68526A116A7A68126A0A441A620C
:100EE0007B6800225A627B6800229A627B684FF01E
:100EF000FF321A620C37BD465DF8047B704700BFB5
:100F00005803002080B582B000AF1A4B1B687B608D
:100F100026E07B681B7AFF2B02D0786800F0E4F8AB
:100F20007B68DB69002B04D07B68DB69184600F026
:100F300011FB7B684FF0FF321A627B685A6A0D4BD7
:100F40001A607B6800225A627868FFF79BFB094BA6
:100F50001B687B607B68002B02D07B6800229A6252
:100F60007B68002B03D07B681B6A002BD1D008372D
:100F7000BD4680BD5803002080B500AF074B1B78ED
:100F8000DBB2012B06D9064B01221A70054B012258
:100F90001A7001E0FFF7B6FF80BD00BFE50000203A
:100FA000540300205503002080B485B000AF002317
:100FB000FB73184BBB60184B7B6014E0BB687A680E
:100FC0001A60BB68FA7B1A71BA685379042161F31D
:100FD00003035371BB681033BB607B6810337B60C5
:100FE000FB7B0133FB73FB7B122BE7D9BA68537988
:100FF000042161F303035371BB6800221A60BB68CC
:10100000FA7B1A71054B034A1A601437BD465DF826
:10101000047B70475C0300206C0300209C040020CC
:1010200080B584B000AF78607B68DB68FB60FB68EC
:10103000002B00D153E0FB685A697B68DA607B685B
:10104000DB68002B03D07B68DB6800229A61FB68B9
:1010500000225A61FB68FF221A72FB681B6AB3F117
:10106000FF3F02D0F868FFF7F3FE7B685B79C3F3BC
:101070000303DBB2022B07D17B681A68FB681A6195
:101080007B6800221A601EE07B685B79C3F3030370
:10109000DBB2032B0CD17B681B68BB60BB681A6892
:1010A000BB68DB889B0013441A68FB681A610AE07E
:1010B0007B685B79C3F30303DBB2012B03D1FB68CD
:1010C0004FF0FF321A61074B1B68FA689A4203D14E
:1010D000FB6801225A7102E0F868FFF7D3FA103773
:1010E000BD4680BD1C03002080B485B000AF786091
:1010F0007B681B7A1A01214B1344FB607B685B6998
:10110000002B07D17B689B69002B03D1FB68002271
:10111000DA602BE07B689B69002B0BD17B685B69F5
:1011200000229A617B685A69FB68DA607B6800225A
:101130005A611BE07B685B69002B07D17B689B6968
:1011400000225A617B6800229A610FE07B689B69EC
:101150007A6852695A617B685B697A6892699A61B8
:101160007B6800229A617B6800225A617B68FF22BB
:101170001A721437BD465DF8047B70475C0300208B
:1011800080B487B000AF7860396000237B610023B2
:101190003B610023FB6000237B6176E07B690122D9
:1011A00002FA03F33B613B681A683B691340FB603A
:1011B000FA683B699A4265D17B681A687B695B0073
:1011C000032101FA03F3DB431A407B681A607B6852
:1011D0001A683B681B7919467B695B0001FA03F3C7
:1011E0001A437B681A603B681B79012B03D03B686C
:1011F0001B79022B2ED17B689A687B695B000321E7
:1012000001FA03F3DB431A407B689A607B689A68B3
:101210003B685B7919467B695B0001FA03F31A436B
:101220007B689A607B685A687B699BB2012101FAEE
:1012300003F3DB431A407B685A607B685A683B685B
:101240009B7919467B699BB201FA03F39BB21A435F
:101250007B685A607B68DA687B699BB25B0003211C
:1012600001FA03F3DB431A407B68DA607B68DA68D3
:101270003B68DB7919467B695B0001FA03F31A438B
:101280007B68DA607B6901337B617B690F2B85D9D1
:101290001C37BD465DF8047B704700BF80B483B047
:1012A00000AF78600B467B807B687A881A830C37A6
:1012B000BD465DF8047B704780B483B000AF7860B2
:1012C0000B467B807B687A885A830C37BD465DF875
:1012D000047B704780B400AF62B600BFBD465DF8C6
:1012E000047B704780B400AF72B600BFBD465DF8A6
:1012F000047B7047A0F1640080F30988704700BF49
:10130000024B1B68024A11681960704700000020F8
:10131000040000200E4B19680E4A1268914200F03A
:101320000F80EFF3098020E9F00F20ED108A0860AC
:101330001A601068B0EC108AB0E8F00F80F30988EA
:10134000054B002018704EF0040EDFF810E07047D7
:101350001C03002018030020E5000020EDFFFFFF24
:1013600080B584B000AF03463960FB71FB79132B65
:1013700001D9012342E0FB791A01224B1344FB609F
:10138000FB685B79C3F30303DBB2032B01D00123BA
:1013900034E0FB681B68BB60BB689A89BB685B89EB
:1013A0009A4201D1082329E0174B1B78DBB20133A5
:1013B000DAB2154B1A70BB681A68BB681B899B00B0
:1013C00013443A681A60BB681B8901339AB2BB6840
:1013D0001A81BB689B8901339AB2BB689A81BB684A
:1013E0001A89BB685B899A4202D1BB6800221A81C4
:1013F000F868FFF715FEFEF7EBFE002318461037DE
:10140000BD4680BD5C030020E500002080B584B0AF
:1014100000AF0346FB71384BBB60FB791F2B01D932
:10142000012364E0BB689A68FB79012101FA03F3A8
:101430001340002B01D1012359E0BB681A68FB79E6
:10144000012101FA03F31340002B01D000234EE0E9
:10145000BB681A68FB79012101FA03F31A43BB68E0
:101460001A60264B1B78DBB20133DAB2234B1A70B9
:10147000BB68DB68FB6034E0FB681B7C002B17D18A
:10148000FB689A68BB681B681A40FB689B689A42B5
:1014900024D1F86800F034F8F860BB685A68FB792A
:1014A000012101FA03F31340002B00D01CE018E0E7
:1014B000FB689A68BB681B681340002B0ED0F86865
:1014C00000F01EF8F860BB685A68FB79012101FA48
:1014D00003F31340002B00D006E002E0FB681B681A
:1014E000FB60FB68002BC7D1FEF772FE0023184695
:1014F0001037BD4680BD00BFA0040020E5000020DD
:1015000080B584B000AF7860786800F023F87B681D
:10151000DB68FB60FB681B6AB3F1FF3F02D0F86831
:10152000FFF796FCFB684FF0FF32DA61084B1B684F
:10153000FA689A4203D1FB6801225A7102E0F86806
:10154000FFF7A0F87B681B6818461037BD4680BDC2
:101550001C03002080B483B000AF78607B681B68F8
:10156000002B0AD17B685B68002B06D1194B002247
:10157000DA60184B00221A6123E07B681B68002B9D
:1015800008D17B685A68134B1A617B685B6800223C
:101590001A6016E07B685B68002B08D17B681A68CC
:1015A0000C4BDA607B681B6800225A6009E07B689C
:1015B0001B687A6852685A607B685B687A68126850
:1015C0001A607B68DB680022DA610C37BD465DF883
:1015D000047B7047A004002080B487B000AFF8609F
:1015E000B9607A607B687B617B69483B7B617B6922
:1015F0001A1F7A614FF080721A607B691A1F7A6134
:10160000FA681A607B696FF001021A607B69143B0B
:101610007B61BA687B691A607B69203B7B617B696F
:10162000403B7B617B6918461C37BD465DF8047BF7
:10163000704700BF80B500AF1F4B1B78DBB2013392
:10164000DAB21D4B1A701D4BD3E90023013243F16E
:1016500000031A49C1E90023194B1B68002B10D065
:10166000174B1B681B6A012B05D9154B1B681A6A9F
:10167000013A1A6205E0124B1B6800221A62FFF75A
:101680007BFC104B1B68002B10D00E4B1B685B685B
:10169000012B05D90B4B1B685A68013A5A6005E0CB
:1016A000084B1B6800225A60FEF7A0FF064B012280
:1016B0001A70FEF78DFD80BDE5000020B804002003
:1016C0005803002018010020E600002080B584B0F7
:1016D00000AF0346FB71FB79132B01D9012328E0EE
:1016E000FB791A01154B1344FB60FB685B79C3F36C
:1016F0000303DBB2012B01D001231AE0FB68DA8877
:10170000FB681B899A4201D1062312E00C4B1B781F
:10171000DBB20133DAB20A4B1A70FB68DB880133A3
:101720009AB2FB68DA80F868FFF77AFCFEF750FDA2
:10173000002318461037BD4680BD00BF5C03002063
:10174000E500002080B483B000AF7860FEE700BF02
:0C17500080B483B000AF0346FB71FEE7DD
:0C175C0004ED00E000000010FCFFFFFFA7
:0400000508000000EF
:00000001FF
